{
  "_format": "hh-sol-artifact-1",
  "contractName": "Dlancer",
  "sourceName": "contracts/Dlancer.sol",
  "abi": [
    {
      "inputs": [],
      "stateMutability": "nonpayable",
      "type": "constructor"
    },
    {
      "anonymous": false,
      "inputs": [
        {
          "indexed": true,
          "internalType": "string",
          "name": "title",
          "type": "string"
        }
      ],
      "name": "JobCompleted",
      "type": "event"
    },
    {
      "anonymous": false,
      "inputs": [
        {
          "indexed": true,
          "internalType": "string",
          "name": "title",
          "type": "string"
        },
        {
          "indexed": true,
          "internalType": "enum OfferBase.OfferCategory",
          "name": "category",
          "type": "uint8"
        }
      ],
      "name": "NewOffer",
      "type": "event"
    },
    {
      "anonymous": false,
      "inputs": [
        {
          "indexed": true,
          "internalType": "string",
          "name": "name",
          "type": "string"
        },
        {
          "indexed": true,
          "internalType": "string",
          "name": "email",
          "type": "string"
        }
      ],
      "name": "NewRegistration",
      "type": "event"
    },
    {
      "anonymous": false,
      "inputs": [
        {
          "indexed": true,
          "internalType": "address",
          "name": "executor",
          "type": "address"
        },
        {
          "indexed": true,
          "internalType": "string",
          "name": "title",
          "type": "string"
        }
      ],
      "name": "OfferAccepted",
      "type": "event"
    },
    {
      "anonymous": false,
      "inputs": [
        {
          "indexed": true,
          "internalType": "address",
          "name": "worker",
          "type": "address"
        },
        {
          "indexed": true,
          "internalType": "string",
          "name": "name",
          "type": "string"
        }
      ],
      "name": "WorkerApproved",
      "type": "event"
    },
    {
      "anonymous": false,
      "inputs": [
        {
          "indexed": true,
          "internalType": "address",
          "name": "worker",
          "type": "address"
        },
        {
          "indexed": true,
          "internalType": "string",
          "name": "reason",
          "type": "string"
        }
      ],
      "name": "WorkerRejected",
      "type": "event"
    },
    {
      "inputs": [
        {
          "internalType": "uint256",
          "name": "_offerId",
          "type": "uint256"
        }
      ],
      "name": "acceptOffer",
      "outputs": [],
      "stateMutability": "nonpayable",
      "type": "function"
    },
    {
      "inputs": [
        {
          "internalType": "address",
          "name": "_workerAddress",
          "type": "address"
        },
        {
          "internalType": "enum WorkerBase.SkillLevel",
          "name": "_skill",
          "type": "uint8"
        }
      ],
      "name": "approveWorker",
      "outputs": [],
      "stateMutability": "nonpayable",
      "type": "function"
    },
    {
      "inputs": [
        {
          "internalType": "address",
          "name": "_workerAddress",
          "type": "address"
        }
      ],
      "name": "banWorker",
      "outputs": [],
      "stateMutability": "nonpayable",
      "type": "function"
    },
    {
      "inputs": [
        {
          "internalType": "uint256",
          "name": "_offerId",
          "type": "uint256"
        }
      ],
      "name": "cancelOffer",
      "outputs": [],
      "stateMutability": "nonpayable",
      "type": "function"
    },
    {
      "inputs": [
        {
          "internalType": "uint256",
          "name": "_jobId",
          "type": "uint256"
        }
      ],
      "name": "confirmJobCompleted",
      "outputs": [],
      "stateMutability": "nonpayable",
      "type": "function"
    },
    {
      "inputs": [
        {
          "internalType": "uint256",
          "name": "_jobId",
          "type": "uint256"
        }
      ],
      "name": "jobCompleted",
      "outputs": [],
      "stateMutability": "nonpayable",
      "type": "function"
    },
    {
      "inputs": [
        {
          "internalType": "uint256",
          "name": "_jobId",
          "type": "uint256"
        }
      ],
      "name": "jobFailed",
      "outputs": [],
      "stateMutability": "nonpayable",
      "type": "function"
    },
    {
      "inputs": [
        {
          "internalType": "uint256",
          "name": "",
          "type": "uint256"
        }
      ],
      "name": "jobs",
      "outputs": [
        {
          "internalType": "uint256",
          "name": "offerId",
          "type": "uint256"
        },
        {
          "internalType": "enum JobBase.JobStatus",
          "name": "status",
          "type": "uint8"
        },
        {
          "internalType": "address",
          "name": "workerAddress",
          "type": "address"
        }
      ],
      "stateMutability": "view",
      "type": "function"
    },
    {
      "inputs": [
        {
          "internalType": "uint256",
          "name": "",
          "type": "uint256"
        }
      ],
      "name": "offers",
      "outputs": [
        {
          "internalType": "string",
          "name": "title",
          "type": "string"
        },
        {
          "internalType": "string",
          "name": "description",
          "type": "string"
        },
        {
          "internalType": "uint256",
          "name": "budget",
          "type": "uint256"
        },
        {
          "internalType": "enum OfferBase.OfferCategory",
          "name": "category",
          "type": "uint8"
        },
        {
          "internalType": "uint256",
          "name": "expirationTime",
          "type": "uint256"
        },
        {
          "internalType": "address",
          "name": "client",
          "type": "address"
        },
        {
          "internalType": "bool",
          "name": "valid",
          "type": "bool"
        },
        {
          "internalType": "bool",
          "name": "inExecution",
          "type": "bool"
        },
        {
          "internalType": "uint256",
          "name": "jobId",
          "type": "uint256"
        }
      ],
      "stateMutability": "view",
      "type": "function"
    },
    {
      "inputs": [],
      "name": "owner",
      "outputs": [
        {
          "internalType": "address",
          "name": "",
          "type": "address"
        }
      ],
      "stateMutability": "view",
      "type": "function"
    },
    {
      "inputs": [
        {
          "internalType": "string",
          "name": "_title",
          "type": "string"
        },
        {
          "internalType": "string",
          "name": "_description",
          "type": "string"
        },
        {
          "internalType": "uint256",
          "name": "_budget",
          "type": "uint256"
        },
        {
          "internalType": "enum OfferBase.OfferCategory",
          "name": "_category",
          "type": "uint8"
        },
        {
          "internalType": "uint256",
          "name": "_expirationTime",
          "type": "uint256"
        }
      ],
      "name": "publishOffer",
      "outputs": [],
      "stateMutability": "payable",
      "type": "function"
    },
    {
      "inputs": [
        {
          "internalType": "string",
          "name": "_name",
          "type": "string"
        },
        {
          "internalType": "string",
          "name": "_email",
          "type": "string"
        },
        {
          "internalType": "string",
          "name": "_image",
          "type": "string"
        }
      ],
      "name": "register",
      "outputs": [],
      "stateMutability": "nonpayable",
      "type": "function"
    },
    {
      "inputs": [
        {
          "internalType": "address",
          "name": "",
          "type": "address"
        }
      ],
      "name": "registrations",
      "outputs": [
        {
          "internalType": "string",
          "name": "name",
          "type": "string"
        },
        {
          "internalType": "string",
          "name": "email",
          "type": "string"
        },
        {
          "internalType": "string",
          "name": "image",
          "type": "string"
        },
        {
          "internalType": "enum WorkerBase.RegistrationStatus",
          "name": "status",
          "type": "uint8"
        }
      ],
      "stateMutability": "view",
      "type": "function"
    },
    {
      "inputs": [
        {
          "internalType": "address",
          "name": "_workerAddress",
          "type": "address"
        },
        {
          "internalType": "string",
          "name": "_reason",
          "type": "string"
        }
      ],
      "name": "rejectWorker",
      "outputs": [],
      "stateMutability": "nonpayable",
      "type": "function"
    },
    {
      "inputs": [
        {
          "internalType": "address",
          "name": "",
          "type": "address"
        }
      ],
      "name": "workers",
      "outputs": [
        {
          "internalType": "string",
          "name": "name",
          "type": "string"
        },
        {
          "internalType": "string",
          "name": "email",
          "type": "string"
        },
        {
          "internalType": "string",
          "name": "image",
          "type": "string"
        },
        {
          "internalType": "uint256",
          "name": "tasksCompleted",
          "type": "uint256"
        },
        {
          "internalType": "uint256",
          "name": "tasksAccepted",
          "type": "uint256"
        },
        {
          "internalType": "enum WorkerBase.SkillLevel",
          "name": "skillLevel",
          "type": "uint8"
        },
        {
          "internalType": "bool",
          "name": "badActor",
          "type": "bool"
        }
      ],
      "stateMutability": "view",
      "type": "function"
    }
  ],
  "bytecode": "0x60806040526001600055600160025534801561001a57600080fd5b5033600660006101000a81548173ffffffffffffffffffffffffffffffffffffffff021916908373ffffffffffffffffffffffffffffffffffffffff1602179055506138958061006b6000396000f3fe6080604052600436106100e85760003560e01c80638da5cb5b1161008a578063c815729d11610059578063c815729d14610315578063ca9f1b961461033e578063ef706adf1461035a578063f9de4e0714610383576100e8565b80638da5cb5b14610258578063942e6bcf146102835780639ad84043146102c3578063b5ced162146102ec576100e8565b80634ff34abe116100c65780634ff34abe14610198578063632f8b45146101c1578063761173f7146101ea5780638a72ea6a14610213576100e8565b8063180aedf3146100ed5780634048a2571461012c5780634cd08d031461016f575b600080fd5b3480156100f957600080fd5b50610114600480360381019061010f919061257a565b6103ac565b6040516101239392919061266e565b60405180910390f35b34801561013857600080fd5b50610153600480360381019061014e91906126d1565b610403565b60405161016697969594939291906127f1565b60405180910390f35b34801561017b57600080fd5b50610196600480360381019061019191906128da565b6105f7565b005b3480156101a457600080fd5b506101bf60048036038101906101ba919061257a565b610959565b005b3480156101cd57600080fd5b506101e860048036038101906101e391906126d1565b610aef565b005b3480156101f657600080fd5b50610211600480360381019061020c919061257a565b610c1c565b005b34801561021f57600080fd5b5061023a6004803603810190610235919061257a565b610d48565b60405161024f999897969594939291906129d6565b60405180910390f35b34801561026457600080fd5b5061026d610eed565b60405161027a9190612a71565b60405180910390f35b34801561028f57600080fd5b506102aa60048036038101906102a591906126d1565b610f13565b6040516102ba9493929190612ad4565b60405180910390f35b3480156102cf57600080fd5b506102ea60048036038101906102e59190612b53565b6110e8565b005b3480156102f857600080fd5b50610313600480360381019061030e919061257a565b61167e565b005b34801561032157600080fd5b5061033c6004803603810190610337919061257a565b6117d3565b005b61035860048036038101906103539190612ce8565b611d88565b005b34801561036657600080fd5b50610381600480360381019061037c919061257a565b611fc3565b005b34801561038f57600080fd5b506103aa60048036038101906103a59190612d9b565b61236e565b005b60036020528060005260406000206000915090508060000154908060010160009054906101000a900460ff16908060010160019054906101000a900473ffffffffffffffffffffffffffffffffffffffff16905083565b600560205280600052604060002060009150905080600001805461042690612e26565b80601f016020809104026020016040519081016040528092919081815260200182805461045290612e26565b801561049f5780601f106104745761010080835404028352916020019161049f565b820191906000526020600020905b81548152906001019060200180831161048257829003601f168201915b5050505050908060010180546104b490612e26565b80601f01602080910402602001604051908101604052809291908181526020018280546104e090612e26565b801561052d5780601f106105025761010080835404028352916020019161052d565b820191906000526020600020905b81548152906001019060200180831161051057829003601f168201915b50505050509080600201805461054290612e26565b80601f016020809104026020016040519081016040528092919081815260200182805461056e90612e26565b80156105bb5780601f10610590576101008083540402835291602001916105bb565b820191906000526020600020905b81548152906001019060200180831161059e57829003601f168201915b5050505050908060030154908060040154908060060160009054906101000a900460ff16908060060160019054906101000a900460ff16905087565b858585856000600381111561060f5761060e6125b6565b5b600460003373ffffffffffffffffffffffffffffffffffffffff1673ffffffffffffffffffffffffffffffffffffffff16815260200190815260200160002060030160009054906101000a900460ff166003811115610671576106706125b6565b5b146106b1576040517f08c379a00000000000000000000000000000000000000000000000000000000081526004016106a890612ea3565b60405180910390fd5b600084849050036106f7576040517f08c379a00000000000000000000000000000000000000000000000000000000081526004016106ee90612f0f565b60405180910390fd5b6000828290500361073d576040517f08c379a000000000000000000000000000000000000000000000000000000000815260040161073490612f7b565b60405180910390fd5b60405180608001604052808b8b8080601f016020809104026020016040519081016040528093929190818152602001838380828437600081840152601f19601f82011690508083019250505050505050815260200189898080601f016020809104026020016040519081016040528093929190818152602001838380828437600081840152601f19601f82011690508083019250505050505050815260200187878080601f016020809104026020016040519081016040528093929190818152602001838380828437600081840152601f19601f8201169050808301925050505050505081526020016001600381111561083a576108396125b6565b5b815250600460003373ffffffffffffffffffffffffffffffffffffffff1673ffffffffffffffffffffffffffffffffffffffff16815260200190815260200160002060008201518160000190816108919190613147565b5060208201518160010190816108a79190613147565b5060408201518160020190816108bd9190613147565b5060608201518160030160006101000a81548160ff021916908360038111156108e9576108e86125b6565b5b02179055509050508787604051610901929190613249565b60405180910390208a8a604051610919929190613249565b60405180910390207fc69084e279fb33469ee9b511b36eb4aa97d6f2f4e68cf88a4555953dd8d0a15f60405160405180910390a350505050505050505050565b600160006003600084815260200190815260200160002060000154815260200190815260200160002060050160009054906101000a900473ffffffffffffffffffffffffffffffffffffffff1673ffffffffffffffffffffffffffffffffffffffff163373ffffffffffffffffffffffffffffffffffffffff1614610a13576040517f08c379a0000000000000000000000000000000000000000000000000000000008152600401610a0a906132ae565b60405180910390fd5b60006003600083815260200190815260200160002060010160019054906101000a900473ffffffffffffffffffffffffffffffffffffffff1673ffffffffffffffffffffffffffffffffffffffff16600160006003600086815260200190815260200160002060000154815260200190815260200160002060020154604051610a9b906132ff565b60006040518083038185875af1925050503d8060008114610ad8576040519150601f19603f3d011682016040523d82523d6000602084013e610add565b606091505b5050905080610aeb57600080fd5b5050565b600660009054906101000a900473ffffffffffffffffffffffffffffffffffffffff1673ffffffffffffffffffffffffffffffffffffffff163373ffffffffffffffffffffffffffffffffffffffff1614610b7f576040517f08c379a0000000000000000000000000000000000000000000000000000000008152600401610b7690613360565b60405180910390fd5b610bbe816040518060400160405280601a81526020017f5265706f7274656420617320646973686f6e657374206475646500000000000081525061236e565b6001600560008373ffffffffffffffffffffffffffffffffffffffff1673ffffffffffffffffffffffffffffffffffffffff16815260200190815260200160002060060160016101000a81548160ff02191690831515021790555050565b803373ffffffffffffffffffffffffffffffffffffffff166003600083815260200190815260200160002060010160019054906101000a900473ffffffffffffffffffffffffffffffffffffffff1673ffffffffffffffffffffffffffffffffffffffff1614610cc1576040517f08c379a0000000000000000000000000000000000000000000000000000000008152600401610cb8906133cc565b60405180910390fd5b600380600084815260200190815260200160002060010160006101000a81548160ff02191690836003811115610cfa57610cf96125b6565b5b02179055506000600160006003600086815260200190815260200160002060000154815260200190815260200160002060050160156101000a81548160ff0219169083151502179055505050565b6001602052806000526040600020600091509050806000018054610d6b90612e26565b80601f0160208091040260200160405190810160405280929190818152602001828054610d9790612e26565b8015610de45780601f10610db957610100808354040283529160200191610de4565b820191906000526020600020905b815481529060010190602001808311610dc757829003601f168201915b505050505090806001018054610df990612e26565b80601f0160208091040260200160405190810160405280929190818152602001828054610e2590612e26565b8015610e725780601f10610e4757610100808354040283529160200191610e72565b820191906000526020600020905b815481529060010190602001808311610e5557829003601f168201915b5050505050908060020154908060030160009054906101000a900460ff16908060040154908060050160009054906101000a900473ffffffffffffffffffffffffffffffffffffffff16908060050160149054906101000a900460ff16908060050160159054906101000a900460ff16908060060154905089565b600660009054906101000a900473ffffffffffffffffffffffffffffffffffffffff1681565b6004602052806000526040600020600091509050806000018054610f3690612e26565b80601f0160208091040260200160405190810160405280929190818152602001828054610f6290612e26565b8015610faf5780601f10610f8457610100808354040283529160200191610faf565b820191906000526020600020905b815481529060010190602001808311610f9257829003601f168201915b505050505090806001018054610fc490612e26565b80601f0160208091040260200160405190810160405280929190818152602001828054610ff090612e26565b801561103d5780601f106110125761010080835404028352916020019161103d565b820191906000526020600020905b81548152906001019060200180831161102057829003601f168201915b50505050509080600201805461105290612e26565b80601f016020809104026020016040519081016040528092919081815260200182805461107e90612e26565b80156110cb5780601f106110a0576101008083540402835291602001916110cb565b820191906000526020600020905b8154815290600101906020018083116110ae57829003601f168201915b5050505050908060030160009054906101000a900460ff16905084565b600660009054906101000a900473ffffffffffffffffffffffffffffffffffffffff1673ffffffffffffffffffffffffffffffffffffffff163373ffffffffffffffffffffffffffffffffffffffff1614611178576040517f08c379a000000000000000000000000000000000000000000000000000000000815260040161116f90613360565b60405180910390fd5b6002600460008473ffffffffffffffffffffffffffffffffffffffff1673ffffffffffffffffffffffffffffffffffffffff16815260200190815260200160002060030160006101000a81548160ff021916908360038111156111de576111dd6125b6565b5b0217905550604051806101000160405280600460008573ffffffffffffffffffffffffffffffffffffffff1673ffffffffffffffffffffffffffffffffffffffff168152602001908152602001600020600001805461123c90612e26565b80601f016020809104026020016040519081016040528092919081815260200182805461126890612e26565b80156112b55780601f1061128a576101008083540402835291602001916112b5565b820191906000526020600020905b81548152906001019060200180831161129857829003601f168201915b50505050508152602001600460008573ffffffffffffffffffffffffffffffffffffffff1673ffffffffffffffffffffffffffffffffffffffff168152602001908152602001600020600101805461130c90612e26565b80601f016020809104026020016040519081016040528092919081815260200182805461133890612e26565b80156113855780601f1061135a57610100808354040283529160200191611385565b820191906000526020600020905b81548152906001019060200180831161136857829003601f168201915b50505050508152602001600460008573ffffffffffffffffffffffffffffffffffffffff1673ffffffffffffffffffffffffffffffffffffffff16815260200190815260200160002060020180546113dc90612e26565b80601f016020809104026020016040519081016040528092919081815260200182805461140890612e26565b80156114555780601f1061142a57610100808354040283529160200191611455565b820191906000526020600020905b81548152906001019060200180831161143857829003601f168201915b505050505081526020016000815260200160008152602001600067ffffffffffffffff81111561148857611487612b98565b5b6040519080825280602002602001820160405280156114b65781602001602082028036833780820191505090505b5081526020018260028111156114cf576114ce6125b6565b5b815260200160001515815250600560008473ffffffffffffffffffffffffffffffffffffffff1673ffffffffffffffffffffffffffffffffffffffff168152602001908152602001600020600082015181600001908161152f9190613147565b5060208201518160010190816115459190613147565b50604082015181600201908161155b9190613147565b50606082015181600301556080820151816004015560a082015181600501908051906020019061158c9291906124c6565b5060c08201518160060160006101000a81548160ff021916908360028111156115b8576115b76125b6565b5b021790555060e08201518160060160016101000a81548160ff021916908315150217905550905050600460008373ffffffffffffffffffffffffffffffffffffffff1673ffffffffffffffffffffffffffffffffffffffff16815260200190815260200160002060000160405161162f919061346f565b60405180910390208273ffffffffffffffffffffffffffffffffffffffff167f2dc273d3a56a16f4505a4840511b7f7e59475ae2cdbccbffab6c3d41b7f9cb9a60405160405180910390a35050565b803373ffffffffffffffffffffffffffffffffffffffff166003600083815260200190815260200160002060010160019054906101000a900473ffffffffffffffffffffffffffffffffffffffff1673ffffffffffffffffffffffffffffffffffffffff1614611723576040517f08c379a000000000000000000000000000000000000000000000000000000000815260040161171a906133cc565b60405180910390fd5b60016003600084815260200190815260200160002060010160006101000a81548160ff0219169083600381111561175d5761175c6125b6565b5b0217905550600160006003600085815260200190815260200160002060000154815260200190815260200160002060000160405161179b919061346f565b60405180910390207ff4997d0622dd94317c7e49d567ef6a4deb5d20c6dd4e2ecf6a45f9f55014794060405160405180910390a25050565b60001515600560003373ffffffffffffffffffffffffffffffffffffffff1673ffffffffffffffffffffffffffffffffffffffff16815260200190815260200160002060060160019054906101000a900460ff16151514611869576040517f08c379a0000000000000000000000000000000000000000000000000000000008152600401611860906134d2565b60405180910390fd5b806000600160008381526020019081526020016000206040518061012001604052908160008201805461189b90612e26565b80601f01602080910402602001604051908101604052809291908181526020018280546118c790612e26565b80156119145780601f106118e957610100808354040283529160200191611914565b820191906000526020600020905b8154815290600101906020018083116118f757829003601f168201915b5050505050815260200160018201805461192d90612e26565b80601f016020809104026020016040519081016040528092919081815260200182805461195990612e26565b80156119a65780601f1061197b576101008083540402835291602001916119a6565b820191906000526020600020905b81548152906001019060200180831161198957829003601f168201915b50505050508152602001600282015481526020016003820160009054906101000a900460ff1660038111156119de576119dd6125b6565b5b60038111156119f0576119ef6125b6565b5b8152602001600482015481526020016005820160009054906101000a900473ffffffffffffffffffffffffffffffffffffffff1673ffffffffffffffffffffffffffffffffffffffff1673ffffffffffffffffffffffffffffffffffffffff1681526020016005820160149054906101000a900460ff161515151581526020016005820160159054906101000a900460ff161515151581526020016006820154815250509050600115158160c00151151514611ae1576040517f08c379a0000000000000000000000000000000000000000000000000000000008152600401611ad89061353e565b60405180910390fd5b3373ffffffffffffffffffffffffffffffffffffffff168160a0015173ffffffffffffffffffffffffffffffffffffffff1603611b53576040517f08c379a0000000000000000000000000000000000000000000000000000000008152600401611b4a906135aa565b60405180910390fd5b600015158160e00151151514611b9e576040517f08c379a0000000000000000000000000000000000000000000000000000000008152600401611b959061363c565b60405180910390fd5b600180600085815260200190815260200160002060050160156101000a81548160ff021916908315150217905550604051806060016040528084815260200160006003811115611bf157611bf06125b6565b5b81526020013373ffffffffffffffffffffffffffffffffffffffff168152506003600060026000815480929190611c279061368b565b9190505581526020019081526020016000206000820151816000015560208201518160010160006101000a81548160ff02191690836003811115611c6e57611c6d6125b6565b5b021790555060408201518160010160016101000a81548173ffffffffffffffffffffffffffffffffffffffff021916908373ffffffffffffffffffffffffffffffffffffffff160217905550905050600560003373ffffffffffffffffffffffffffffffffffffffff1673ffffffffffffffffffffffffffffffffffffffff1681526020019081526020016000206004016000815480929190611d109061368b565b919050555060016000848152602001908152602001600020600001604051611d38919061346f565b60405180910390203373ffffffffffffffffffffffffffffffffffffffff167f916b932a3c288483f87b030d80d1d27e65bf88e30c04cc858f20c3ced833665d60405160405180910390a3505050565b82341015611dcb576040517f08c379a0000000000000000000000000000000000000000000000000000000008152600401611dc29061371f565b60405180910390fd5b604051806101200160405280868152602001858152602001848152602001836003811115611dfc57611dfb6125b6565b5b81526020018281526020013373ffffffffffffffffffffffffffffffffffffffff168152602001600115158152602001600015158152602001600081525060016000806000815480929190611e509061368b565b9190505581526020019081526020016000206000820151816000019081611e779190613147565b506020820151816001019081611e8d9190613147565b506040820151816002015560608201518160030160006101000a81548160ff02191690836003811115611ec357611ec26125b6565b5b02179055506080820151816004015560a08201518160050160006101000a81548173ffffffffffffffffffffffffffffffffffffffff021916908373ffffffffffffffffffffffffffffffffffffffff16021790555060c08201518160050160146101000a81548160ff02191690831515021790555060e08201518160050160156101000a81548160ff0219169083151502179055506101008201518160060155905050816003811115611f7a57611f796125b6565b5b85604051611f889190613770565b60405180910390207f983908ad4acf6f64fa39e50c8c92ff66b728d6754ad26f4894116c6ff163ab9b60405160405180910390a35050505050565b8060006001600083815260200190815260200160002060405180610120016040529081600082018054611ff590612e26565b80601f016020809104026020016040519081016040528092919081815260200182805461202190612e26565b801561206e5780601f106120435761010080835404028352916020019161206e565b820191906000526020600020905b81548152906001019060200180831161205157829003601f168201915b5050505050815260200160018201805461208790612e26565b80601f01602080910402602001604051908101604052809291908181526020018280546120b390612e26565b80156121005780601f106120d557610100808354040283529160200191612100565b820191906000526020600020905b8154815290600101906020018083116120e357829003601f168201915b50505050508152602001600282015481526020016003820160009054906101000a900460ff166003811115612138576121376125b6565b5b600381111561214a576121496125b6565b5b8152602001600482015481526020016005820160009054906101000a900473ffffffffffffffffffffffffffffffffffffffff1673ffffffffffffffffffffffffffffffffffffffff1673ffffffffffffffffffffffffffffffffffffffff1681526020016005820160149054906101000a900460ff161515151581526020016005820160159054906101000a900460ff1615151515815260200160068201548152505090503373ffffffffffffffffffffffffffffffffffffffff168160a0015173ffffffffffffffffffffffffffffffffffffffff1614612262576040517f08c379a0000000000000000000000000000000000000000000000000000000008152600401612259906137d3565b60405180910390fd5b600015158160e001511515146122ad576040517f08c379a00000000000000000000000000000000000000000000000000000000081526004016122a49061383f565b60405180910390fd5b60006001600085815260200190815260200160002060050160146101000a81548160ff02191690831515021790555060003373ffffffffffffffffffffffffffffffffffffffff166001600086815260200190815260200160002060020154604051612318906132ff565b60006040518083038185875af1925050503d8060008114612355576040519150601f19603f3d011682016040523d82523d6000602084013e61235a565b606091505b505090508061236857600080fd5b50505050565b600660009054906101000a900473ffffffffffffffffffffffffffffffffffffffff1673ffffffffffffffffffffffffffffffffffffffff163373ffffffffffffffffffffffffffffffffffffffff16146123fe576040517f08c379a00000000000000000000000000000000000000000000000000000000081526004016123f590613360565b60405180910390fd5b6003600460008473ffffffffffffffffffffffffffffffffffffffff1673ffffffffffffffffffffffffffffffffffffffff16815260200190815260200160002060030160006101000a81548160ff02191690836003811115612464576124636125b6565b5b0217905550806040516124779190613770565b60405180910390208273ffffffffffffffffffffffffffffffffffffffff167f270d056eeecf1ef5fffe49d9d1faffbdc7b7a7ea72bba15e32e278b4a27d09c660405160405180910390a35050565b828054828255906000526020600020908101928215612502579160200282015b828111156125015782518255916020019190600101906124e6565b5b50905061250f9190612513565b5090565b5b8082111561252c576000816000905550600101612514565b5090565b6000604051905090565b600080fd5b600080fd5b6000819050919050565b61255781612544565b811461256257600080fd5b50565b6000813590506125748161254e565b92915050565b6000602082840312156125905761258f61253a565b5b600061259e84828501612565565b91505092915050565b6125b081612544565b82525050565b7f4e487b7100000000000000000000000000000000000000000000000000000000600052602160045260246000fd5b600481106125f6576125f56125b6565b5b50565b6000819050612607826125e5565b919050565b6000612617826125f9565b9050919050565b6126278161260c565b82525050565b600073ffffffffffffffffffffffffffffffffffffffff82169050919050565b60006126588261262d565b9050919050565b6126688161264d565b82525050565b600060608201905061268360008301866125a7565b612690602083018561261e565b61269d604083018461265f565b949350505050565b6126ae8161264d565b81146126b957600080fd5b50565b6000813590506126cb816126a5565b92915050565b6000602082840312156126e7576126e661253a565b5b60006126f5848285016126bc565b91505092915050565b600081519050919050565b600082825260208201905092915050565b60005b8381101561273857808201518184015260208101905061271d565b60008484015250505050565b6000601f19601f8301169050919050565b6000612760826126fe565b61276a8185612709565b935061277a81856020860161271a565b61278381612744565b840191505092915050565b6003811061279f5761279e6125b6565b5b50565b60008190506127b08261278e565b919050565b60006127c0826127a2565b9050919050565b6127d0816127b5565b82525050565b60008115159050919050565b6127eb816127d6565b82525050565b600060e082019050818103600083015261280b818a612755565b9050818103602083015261281f8189612755565b905081810360408301526128338188612755565b905061284260608301876125a7565b61284f60808301866125a7565b61285c60a08301856127c7565b61286960c08301846127e2565b98975050505050505050565b600080fd5b600080fd5b600080fd5b60008083601f84011261289a57612899612875565b5b8235905067ffffffffffffffff8111156128b7576128b661287a565b5b6020830191508360018202830111156128d3576128d261287f565b5b9250929050565b600080600080600080606087890312156128f7576128f661253a565b5b600087013567ffffffffffffffff8111156129155761291461253f565b5b61292189828a01612884565b9650965050602087013567ffffffffffffffff8111156129445761294361253f565b5b61295089828a01612884565b9450945050604087013567ffffffffffffffff8111156129735761297261253f565b5b61297f89828a01612884565b92509250509295509295509295565b6004811061299f5761299e6125b6565b5b50565b60008190506129b08261298e565b919050565b60006129c0826129a2565b9050919050565b6129d0816129b5565b82525050565b60006101208201905081810360008301526129f1818c612755565b90508181036020830152612a05818b612755565b9050612a14604083018a6125a7565b612a2160608301896129c7565b612a2e60808301886125a7565b612a3b60a083018761265f565b612a4860c08301866127e2565b612a5560e08301856127e2565b612a636101008301846125a7565b9a9950505050505050505050565b6000602082019050612a86600083018461265f565b92915050565b60048110612a9d57612a9c6125b6565b5b50565b6000819050612aae82612a8c565b919050565b6000612abe82612aa0565b9050919050565b612ace81612ab3565b82525050565b60006080820190508181036000830152612aee8187612755565b90508181036020830152612b028186612755565b90508181036040830152612b168185612755565b9050612b256060830184612ac5565b95945050505050565b60038110612b3b57600080fd5b50565b600081359050612b4d81612b2e565b92915050565b60008060408385031215612b6a57612b6961253a565b5b6000612b78858286016126bc565b9250506020612b8985828601612b3e565b9150509250929050565b600080fd5b7f4e487b7100000000000000000000000000000000000000000000000000000000600052604160045260246000fd5b612bd082612744565b810181811067ffffffffffffffff82111715612bef57612bee612b98565b5b80604052505050565b6000612c02612530565b9050612c0e8282612bc7565b919050565b600067ffffffffffffffff821115612c2e57612c2d612b98565b5b612c3782612744565b9050602081019050919050565b82818337600083830152505050565b6000612c66612c6184612c13565b612bf8565b905082815260208101848484011115612c8257612c81612b93565b5b612c8d848285612c44565b509392505050565b600082601f830112612caa57612ca9612875565b5b8135612cba848260208601612c53565b91505092915050565b60048110612cd057600080fd5b50565b600081359050612ce281612cc3565b92915050565b600080600080600060a08688031215612d0457612d0361253a565b5b600086013567ffffffffffffffff811115612d2257612d2161253f565b5b612d2e88828901612c95565b955050602086013567ffffffffffffffff811115612d4f57612d4e61253f565b5b612d5b88828901612c95565b9450506040612d6c88828901612565565b9350506060612d7d88828901612cd3565b9250506080612d8e88828901612565565b9150509295509295909350565b60008060408385031215612db257612db161253a565b5b6000612dc0858286016126bc565b925050602083013567ffffffffffffffff811115612de157612de061253f565b5b612ded85828601612c95565b9150509250929050565b7f4e487b7100000000000000000000000000000000000000000000000000000000600052602260045260246000fd5b60006002820490506001821680612e3e57607f821691505b602082108103612e5157612e50612df7565b5b50919050565b7f526567697374726174696f6e20616c7265616479207375626d69747465640000600082015250565b6000612e8d601e83612709565b9150612e9882612e57565b602082019050919050565b60006020820190508181036000830152612ebc81612e80565b9050919050565b7f4e616d65206d757374206e6f7420626520656d70747900000000000000000000600082015250565b6000612ef9601683612709565b9150612f0482612ec3565b602082019050919050565b60006020820190508181036000830152612f2881612eec565b9050919050565b7f456d61696c206d757374206e6f7420626520656d707479000000000000000000600082015250565b6000612f65601783612709565b9150612f7082612f2f565b602082019050919050565b60006020820190508181036000830152612f9481612f58565b9050919050565b60008190508160005260206000209050919050565b60006020601f8301049050919050565b600082821b905092915050565b600060088302612ffd7fffffffffffffffffffffffffffffffffffffffffffffffffffffffffffffffff82612fc0565b6130078683612fc0565b95508019841693508086168417925050509392505050565b6000819050919050565b600061304461303f61303a84612544565b61301f565b612544565b9050919050565b6000819050919050565b61305e83613029565b61307261306a8261304b565b848454612fcd565b825550505050565b600090565b61308761307a565b613092818484613055565b505050565b5b818110156130b6576130ab60008261307f565b600181019050613098565b5050565b601f8211156130fb576130cc81612f9b565b6130d584612fb0565b810160208510156130e4578190505b6130f86130f085612fb0565b830182613097565b50505b505050565b600082821c905092915050565b600061311e60001984600802613100565b1980831691505092915050565b6000613137838361310d565b9150826002028217905092915050565b613150826126fe565b67ffffffffffffffff81111561316957613168612b98565b5b6131738254612e26565b61317e8282856130ba565b600060209050601f8311600181146131b1576000841561319f578287015190505b6131a9858261312b565b865550613211565b601f1984166131bf86612f9b565b60005b828110156131e7578489015182556001820191506020850194506020810190506131c2565b868310156132045784890151613200601f89168261310d565b8355505b6001600288020188555050505b505050505050565b600081905092915050565b60006132308385613219565b935061323d838584612c44565b82840190509392505050565b6000613256828486613224565b91508190509392505050565b7f4f6e6c7920636c69656e742063616e20636f6e6669726d206a6f6220646f6e65600082015250565b6000613298602083612709565b91506132a382613262565b602082019050919050565b600060208201905081810360008301526132c78161328b565b9050919050565b600081905092915050565b50565b60006132e96000836132ce565b91506132f4826132d9565b600082019050919050565b600061330a826132dc565b9150819050919050565b7f43616c6c6572206d75737420626520616e206f776e6572000000000000000000600082015250565b600061334a601783612709565b915061335582613314565b602082019050919050565b600060208201905081810360008301526133798161333d565b9050919050565b7f53656e646572206973206e6f74206a6f6220776f726b65720000000000000000600082015250565b60006133b6601883612709565b91506133c182613380565b602082019050919050565b600060208201905081810360008301526133e5816133a9565b9050919050565b600081546133f981612e26565b6134038186613219565b9450600182166000811461341e576001811461343357613466565b60ff1983168652811515820286019350613466565b61343c85612f9b565b60005b8381101561345e5781548189015260018201915060208101905061343f565b838801955050505b50505092915050565b600061347b82846133ec565b915081905092915050565b7f776f726b6572206d757374206861766520696e74656772697479000000000000600082015250565b60006134bc601a83612709565b91506134c782613486565b602082019050919050565b600060208201905081810360008301526134eb816134af565b9050919050565b7f4f66666572206973206e6f206c6f6e6765722076616c69640000000000000000600082015250565b6000613528601883612709565b9150613533826134f2565b602082019050919050565b600060208201905081810360008301526135578161351b565b9050919050565b7f43616e6e6f742061636365707420796f7572206f776e206f6666657273000000600082015250565b6000613594601d83612709565b915061359f8261355e565b602082019050919050565b600060208201905081810360008301526135c381613587565b9050919050565b7f43616e6e6f7420616363657074206f666665727320696e20657865637574696f60008201527f6e00000000000000000000000000000000000000000000000000000000000000602082015250565b6000613626602183612709565b9150613631826135ca565b604082019050919050565b6000602082019050818103600083015261365581613619565b9050919050565b7f4e487b7100000000000000000000000000000000000000000000000000000000600052601160045260246000fd5b600061369682612544565b91507fffffffffffffffffffffffffffffffffffffffffffffffffffffffffffffffff82036136c8576136c761365c565b5b600182019050919050565b7f4d757374206465706f7369742062756467657420746f20636f6e746163740000600082015250565b6000613709601e83612709565b9150613714826136d3565b602082019050919050565b60006020820190508181036000830152613738816136fc565b9050919050565b600061374a826126fe565b6137548185613219565b935061376481856020860161271a565b80840191505092915050565b600061377c828461373f565b915081905092915050565b7f4f6e6c79207461736b206f776e65722063616e2063616e63656c206f66666572600082015250565b60006137bd602083612709565b91506137c882613787565b602082019050919050565b600060208201905081810360008301526137ec816137b0565b9050919050565b7f43616e6e6f742063616e63656c206f6666657220696e20657865637574696f6e600082015250565b6000613829602083612709565b9150613834826137f3565b602082019050919050565b600060208201905081810360008301526138588161381c565b905091905056fea2646970667358221220b9c7d040d8e466f84e558915986fa1345021aa6b35e71f7ef054468960a3969864736f6c63430008120033",
  "linkReferences": {},
  "deployedLinkReferences": {}
}