{
  "_format": "hh-sol-artifact-1",
  "contractName": "JobBase",
  "sourceName": "contracts/JobBase.sol",
  "abi": [
    {
      "anonymous": false,
      "inputs": [
        {
          "indexed": true,
          "internalType": "string",
          "name": "title",
          "type": "string"
        }
      ],
      "name": "JobCompleted",
      "type": "event"
    },
    {
      "anonymous": false,
      "inputs": [
        {
          "indexed": true,
          "internalType": "string",
          "name": "title",
          "type": "string"
        },
        {
          "indexed": true,
          "internalType": "enum OfferBase.OfferCategory",
          "name": "category",
          "type": "uint8"
        }
      ],
      "name": "NewOffer",
      "type": "event"
    },
    {
      "anonymous": false,
      "inputs": [
        {
          "indexed": true,
          "internalType": "address",
          "name": "executor",
          "type": "address"
        },
        {
          "indexed": true,
          "internalType": "string",
          "name": "title",
          "type": "string"
        }
      ],
      "name": "OfferAccepted",
      "type": "event"
    },
    {
      "inputs": [
        {
          "internalType": "uint256",
          "name": "_offerId",
          "type": "uint256"
        }
      ],
      "name": "cancelOffer",
      "outputs": [],
      "stateMutability": "nonpayable",
      "type": "function"
    },
    {
      "inputs": [
        {
          "internalType": "uint256",
          "name": "",
          "type": "uint256"
        }
      ],
      "name": "jobs",
      "outputs": [
        {
          "internalType": "uint256",
          "name": "offerId",
          "type": "uint256"
        },
        {
          "internalType": "enum JobBase.JobStatus",
          "name": "status",
          "type": "uint8"
        },
        {
          "internalType": "address",
          "name": "workerAddress",
          "type": "address"
        }
      ],
      "stateMutability": "view",
      "type": "function"
    },
    {
      "inputs": [
        {
          "internalType": "uint256",
          "name": "",
          "type": "uint256"
        }
      ],
      "name": "offers",
      "outputs": [
        {
          "internalType": "string",
          "name": "title",
          "type": "string"
        },
        {
          "internalType": "string",
          "name": "description",
          "type": "string"
        },
        {
          "internalType": "uint256",
          "name": "budget",
          "type": "uint256"
        },
        {
          "internalType": "enum OfferBase.OfferCategory",
          "name": "category",
          "type": "uint8"
        },
        {
          "internalType": "uint256",
          "name": "expirationTime",
          "type": "uint256"
        },
        {
          "internalType": "address",
          "name": "client",
          "type": "address"
        },
        {
          "internalType": "bool",
          "name": "valid",
          "type": "bool"
        },
        {
          "internalType": "bool",
          "name": "inExecution",
          "type": "bool"
        },
        {
          "internalType": "uint256",
          "name": "jobId",
          "type": "uint256"
        }
      ],
      "stateMutability": "view",
      "type": "function"
    },
    {
      "inputs": [
        {
          "internalType": "string",
          "name": "_title",
          "type": "string"
        },
        {
          "internalType": "string",
          "name": "_description",
          "type": "string"
        },
        {
          "internalType": "uint256",
          "name": "_budget",
          "type": "uint256"
        },
        {
          "internalType": "enum OfferBase.OfferCategory",
          "name": "_category",
          "type": "uint8"
        },
        {
          "internalType": "uint256",
          "name": "_expirationTime",
          "type": "uint256"
        }
      ],
      "name": "publishOffer",
      "outputs": [],
      "stateMutability": "payable",
      "type": "function"
    }
  ],
  "bytecode": "0x60806040526001600055600160025534801561001a57600080fd5b506113678061002a6000396000f3fe60806040526004361061003f5760003560e01c8063180aedf3146100445780638a72ea6a14610083578063ca9f1b96146100c8578063ef706adf146100e4575b600080fd5b34801561005057600080fd5b5061006b60048036038101906100669190610939565b61010d565b60405161007a93929190610a2d565b60405180910390f35b34801561008f57600080fd5b506100aa60048036038101906100a59190610939565b610164565b6040516100bf99989796959493929190610b57565b60405180910390f35b6100e260048036038101906100dd9190610d4c565b610309565b005b3480156100f057600080fd5b5061010b60048036038101906101069190610939565b610544565b005b60036020528060005260406000206000915090508060000154908060010160009054906101000a900460ff16908060010160019054906101000a900473ffffffffffffffffffffffffffffffffffffffff16905083565b600160205280600052604060002060009150905080600001805461018790610e2e565b80601f01602080910402602001604051908101604052809291908181526020018280546101b390610e2e565b80156102005780601f106101d557610100808354040283529160200191610200565b820191906000526020600020905b8154815290600101906020018083116101e357829003601f168201915b50505050509080600101805461021590610e2e565b80601f016020809104026020016040519081016040528092919081815260200182805461024190610e2e565b801561028e5780601f106102635761010080835404028352916020019161028e565b820191906000526020600020905b81548152906001019060200180831161027157829003601f168201915b5050505050908060020154908060030160009054906101000a900460ff16908060040154908060050160009054906101000a900473ffffffffffffffffffffffffffffffffffffffff16908060050160149054906101000a900460ff16908060050160159054906101000a900460ff16908060060154905089565b8234101561034c576040517f08c379a000000000000000000000000000000000000000000000000000000000815260040161034390610eab565b60405180910390fd5b60405180610120016040528086815260200185815260200184815260200183600381111561037d5761037c610975565b5b81526020018281526020013373ffffffffffffffffffffffffffffffffffffffff1681526020016001151581526020016000151581526020016000815250600160008060008154809291906103d190610efa565b91905055815260200190815260200160002060008201518160000190816103f891906110ee565b50602082015181600101908161040e91906110ee565b506040820151816002015560608201518160030160006101000a81548160ff0219169083600381111561044457610443610975565b5b02179055506080820151816004015560a08201518160050160006101000a81548173ffffffffffffffffffffffffffffffffffffffff021916908373ffffffffffffffffffffffffffffffffffffffff16021790555060c08201518160050160146101000a81548160ff02191690831515021790555060e08201518160050160156101000a81548160ff02191690831515021790555061010082015181600601559050508160038111156104fb576104fa610975565b5b8560405161050991906111fc565b60405180910390207f983908ad4acf6f64fa39e50c8c92ff66b728d6754ad26f4894116c6ff163ab9b60405160405180910390a35050505050565b806000600160008381526020019081526020016000206040518061012001604052908160008201805461057690610e2e565b80601f01602080910402602001604051908101604052809291908181526020018280546105a290610e2e565b80156105ef5780601f106105c4576101008083540402835291602001916105ef565b820191906000526020600020905b8154815290600101906020018083116105d257829003601f168201915b5050505050815260200160018201805461060890610e2e565b80601f016020809104026020016040519081016040528092919081815260200182805461063490610e2e565b80156106815780601f1061065657610100808354040283529160200191610681565b820191906000526020600020905b81548152906001019060200180831161066457829003601f168201915b50505050508152602001600282015481526020016003820160009054906101000a900460ff1660038111156106b9576106b8610975565b5b60038111156106cb576106ca610975565b5b8152602001600482015481526020016005820160009054906101000a900473ffffffffffffffffffffffffffffffffffffffff1673ffffffffffffffffffffffffffffffffffffffff1673ffffffffffffffffffffffffffffffffffffffff1681526020016005820160149054906101000a900460ff161515151581526020016005820160159054906101000a900460ff1615151515815260200160068201548152505090503373ffffffffffffffffffffffffffffffffffffffff168160a0015173ffffffffffffffffffffffffffffffffffffffff16146107e3576040517f08c379a00000000000000000000000000000000000000000000000000000000081526004016107da9061125f565b60405180910390fd5b600015158160e0015115151461082e576040517f08c379a0000000000000000000000000000000000000000000000000000000008152600401610825906112cb565b60405180910390fd5b60006001600085815260200190815260200160002060050160146101000a81548160ff02191690831515021790555060003373ffffffffffffffffffffffffffffffffffffffff1660016000868152602001908152602001600020600201546040516108999061131c565b60006040518083038185875af1925050503d80600081146108d6576040519150601f19603f3d011682016040523d82523d6000602084013e6108db565b606091505b50509050806108e957600080fd5b50505050565b6000604051905090565b600080fd5b600080fd5b6000819050919050565b61091681610903565b811461092157600080fd5b50565b6000813590506109338161090d565b92915050565b60006020828403121561094f5761094e6108f9565b5b600061095d84828501610924565b91505092915050565b61096f81610903565b82525050565b7f4e487b7100000000000000000000000000000000000000000000000000000000600052602160045260246000fd5b600481106109b5576109b4610975565b5b50565b60008190506109c6826109a4565b919050565b60006109d6826109b8565b9050919050565b6109e6816109cb565b82525050565b600073ffffffffffffffffffffffffffffffffffffffff82169050919050565b6000610a17826109ec565b9050919050565b610a2781610a0c565b82525050565b6000606082019050610a426000830186610966565b610a4f60208301856109dd565b610a5c6040830184610a1e565b949350505050565b600081519050919050565b600082825260208201905092915050565b60005b83811015610a9e578082015181840152602081019050610a83565b60008484015250505050565b6000601f19601f8301169050919050565b6000610ac682610a64565b610ad08185610a6f565b9350610ae0818560208601610a80565b610ae981610aaa565b840191505092915050565b60048110610b0557610b04610975565b5b50565b6000819050610b1682610af4565b919050565b6000610b2682610b08565b9050919050565b610b3681610b1b565b82525050565b60008115159050919050565b610b5181610b3c565b82525050565b6000610120820190508181036000830152610b72818c610abb565b90508181036020830152610b86818b610abb565b9050610b95604083018a610966565b610ba26060830189610b2d565b610baf6080830188610966565b610bbc60a0830187610a1e565b610bc960c0830186610b48565b610bd660e0830185610b48565b610be4610100830184610966565b9a9950505050505050505050565b600080fd5b600080fd5b7f4e487b7100000000000000000000000000000000000000000000000000000000600052604160045260246000fd5b610c3482610aaa565b810181811067ffffffffffffffff82111715610c5357610c52610bfc565b5b80604052505050565b6000610c666108ef565b9050610c728282610c2b565b919050565b600067ffffffffffffffff821115610c9257610c91610bfc565b5b610c9b82610aaa565b9050602081019050919050565b82818337600083830152505050565b6000610cca610cc584610c77565b610c5c565b905082815260208101848484011115610ce657610ce5610bf7565b5b610cf1848285610ca8565b509392505050565b600082601f830112610d0e57610d0d610bf2565b5b8135610d1e848260208601610cb7565b91505092915050565b60048110610d3457600080fd5b50565b600081359050610d4681610d27565b92915050565b600080600080600060a08688031215610d6857610d676108f9565b5b600086013567ffffffffffffffff811115610d8657610d856108fe565b5b610d9288828901610cf9565b955050602086013567ffffffffffffffff811115610db357610db26108fe565b5b610dbf88828901610cf9565b9450506040610dd088828901610924565b9350506060610de188828901610d37565b9250506080610df288828901610924565b9150509295509295909350565b7f4e487b7100000000000000000000000000000000000000000000000000000000600052602260045260246000fd5b60006002820490506001821680610e4657607f821691505b602082108103610e5957610e58610dff565b5b50919050565b7f4d757374206465706f7369742062756467657420746f20636f6e746163740000600082015250565b6000610e95601e83610a6f565b9150610ea082610e5f565b602082019050919050565b60006020820190508181036000830152610ec481610e88565b9050919050565b7f4e487b7100000000000000000000000000000000000000000000000000000000600052601160045260246000fd5b6000610f0582610903565b91507fffffffffffffffffffffffffffffffffffffffffffffffffffffffffffffffff8203610f3757610f36610ecb565b5b600182019050919050565b60008190508160005260206000209050919050565b60006020601f8301049050919050565b600082821b905092915050565b600060088302610fa47fffffffffffffffffffffffffffffffffffffffffffffffffffffffffffffffff82610f67565b610fae8683610f67565b95508019841693508086168417925050509392505050565b6000819050919050565b6000610feb610fe6610fe184610903565b610fc6565b610903565b9050919050565b6000819050919050565b61100583610fd0565b61101961101182610ff2565b848454610f74565b825550505050565b600090565b61102e611021565b611039818484610ffc565b505050565b5b8181101561105d57611052600082611026565b60018101905061103f565b5050565b601f8211156110a25761107381610f42565b61107c84610f57565b8101602085101561108b578190505b61109f61109785610f57565b83018261103e565b50505b505050565b600082821c905092915050565b60006110c5600019846008026110a7565b1980831691505092915050565b60006110de83836110b4565b9150826002028217905092915050565b6110f782610a64565b67ffffffffffffffff8111156111105761110f610bfc565b5b61111a8254610e2e565b611125828285611061565b600060209050601f8311600181146111585760008415611146578287015190505b61115085826110d2565b8655506111b8565b601f19841661116686610f42565b60005b8281101561118e57848901518255600182019150602085019450602081019050611169565b868310156111ab57848901516111a7601f8916826110b4565b8355505b6001600288020188555050505b505050505050565b600081905092915050565b60006111d682610a64565b6111e081856111c0565b93506111f0818560208601610a80565b80840191505092915050565b600061120882846111cb565b915081905092915050565b7f4f6e6c79207461736b206f776e65722063616e2063616e63656c206f66666572600082015250565b6000611249602083610a6f565b915061125482611213565b602082019050919050565b600060208201905081810360008301526112788161123c565b9050919050565b7f43616e6e6f742063616e63656c206f6666657220696e20657865637574696f6e600082015250565b60006112b5602083610a6f565b91506112c08261127f565b602082019050919050565b600060208201905081810360008301526112e4816112a8565b9050919050565b600081905092915050565b50565b60006113066000836112eb565b9150611311826112f6565b600082019050919050565b6000611327826112f9565b915081905091905056fea264697066735822122048f47d34b44a57d28ce85da580dd168173504b13bac7ceb4eb24a6945ad0488664736f6c63430008120033",
  "linkReferences": {},
  "deployedLinkReferences": {}
}