{
  "_format": "hh-sol-artifact-1",
  "contractName": "OfferBase",
  "sourceName": "contracts/OfferBase.sol",
  "abi": [
    {
      "anonymous": false,
      "inputs": [
        {
          "indexed": true,
          "internalType": "string",
          "name": "title",
          "type": "string"
        },
        {
          "indexed": true,
          "internalType": "enum OfferBase.OfferCategory",
          "name": "category",
          "type": "uint8"
        }
      ],
      "name": "NewOffer",
      "type": "event"
    },
    {
      "anonymous": false,
      "inputs": [
        {
          "indexed": true,
          "internalType": "address",
          "name": "executor",
          "type": "address"
        },
        {
          "indexed": true,
          "internalType": "string",
          "name": "title",
          "type": "string"
        }
      ],
      "name": "OfferAccepted",
      "type": "event"
    },
    {
      "inputs": [
        {
          "internalType": "uint256",
          "name": "_offerId",
          "type": "uint256"
        }
      ],
      "name": "cancelOffer",
      "outputs": [],
      "stateMutability": "nonpayable",
      "type": "function"
    },
    {
      "inputs": [
        {
          "internalType": "uint256",
          "name": "",
          "type": "uint256"
        }
      ],
      "name": "offers",
      "outputs": [
        {
          "internalType": "string",
          "name": "title",
          "type": "string"
        },
        {
          "internalType": "string",
          "name": "description",
          "type": "string"
        },
        {
          "internalType": "uint256",
          "name": "budget",
          "type": "uint256"
        },
        {
          "internalType": "enum OfferBase.OfferCategory",
          "name": "category",
          "type": "uint8"
        },
        {
          "internalType": "uint256",
          "name": "expirationTime",
          "type": "uint256"
        },
        {
          "internalType": "address",
          "name": "client",
          "type": "address"
        },
        {
          "internalType": "bool",
          "name": "valid",
          "type": "bool"
        },
        {
          "internalType": "bool",
          "name": "inExecution",
          "type": "bool"
        },
        {
          "internalType": "uint256",
          "name": "jobId",
          "type": "uint256"
        }
      ],
      "stateMutability": "view",
      "type": "function"
    },
    {
      "inputs": [
        {
          "internalType": "string",
          "name": "_title",
          "type": "string"
        },
        {
          "internalType": "string",
          "name": "_description",
          "type": "string"
        },
        {
          "internalType": "uint256",
          "name": "_budget",
          "type": "uint256"
        },
        {
          "internalType": "enum OfferBase.OfferCategory",
          "name": "_category",
          "type": "uint8"
        },
        {
          "internalType": "uint256",
          "name": "_expirationTime",
          "type": "uint256"
        }
      ],
      "name": "publishOffer",
      "outputs": [],
      "stateMutability": "payable",
      "type": "function"
    }
  ],
  "bytecode": "0x6080604052600160005534801561001557600080fd5b50611247806100256000396000f3fe6080604052600436106100345760003560e01c80638a72ea6a14610039578063ca9f1b961461007e578063ef706adf1461009a575b600080fd5b34801561004557600080fd5b50610060600480360381019061005b9190610898565b6100c3565b60405161007599989796959493929190610a37565b60405180910390f35b61009860048036038101906100939190610c2c565b610268565b005b3480156100a657600080fd5b506100c160048036038101906100bc9190610898565b6104a3565b005b60016020528060005260406000206000915090508060000180546100e690610d0e565b80601f016020809104026020016040519081016040528092919081815260200182805461011290610d0e565b801561015f5780601f106101345761010080835404028352916020019161015f565b820191906000526020600020905b81548152906001019060200180831161014257829003601f168201915b50505050509080600101805461017490610d0e565b80601f01602080910402602001604051908101604052809291908181526020018280546101a090610d0e565b80156101ed5780601f106101c2576101008083540402835291602001916101ed565b820191906000526020600020905b8154815290600101906020018083116101d057829003601f168201915b5050505050908060020154908060030160009054906101000a900460ff16908060040154908060050160009054906101000a900473ffffffffffffffffffffffffffffffffffffffff16908060050160149054906101000a900460ff16908060050160159054906101000a900460ff16908060060154905089565b823410156102ab576040517f08c379a00000000000000000000000000000000000000000000000000000000081526004016102a290610d8b565b60405180910390fd5b6040518061012001604052808681526020018581526020018481526020018360038111156102dc576102db610964565b5b81526020018281526020013373ffffffffffffffffffffffffffffffffffffffff16815260200160011515815260200160001515815260200160008152506001600080600081548092919061033090610dda565b91905055815260200190815260200160002060008201518160000190816103579190610fce565b50602082015181600101908161036d9190610fce565b506040820151816002015560608201518160030160006101000a81548160ff021916908360038111156103a3576103a2610964565b5b02179055506080820151816004015560a08201518160050160006101000a81548173ffffffffffffffffffffffffffffffffffffffff021916908373ffffffffffffffffffffffffffffffffffffffff16021790555060c08201518160050160146101000a81548160ff02191690831515021790555060e08201518160050160156101000a81548160ff021916908315150217905550610100820151816006015590505081600381111561045a57610459610964565b5b8560405161046891906110dc565b60405180910390207f983908ad4acf6f64fa39e50c8c92ff66b728d6754ad26f4894116c6ff163ab9b60405160405180910390a35050505050565b80600060016000838152602001908152602001600020604051806101200160405290816000820180546104d590610d0e565b80601f016020809104026020016040519081016040528092919081815260200182805461050190610d0e565b801561054e5780601f106105235761010080835404028352916020019161054e565b820191906000526020600020905b81548152906001019060200180831161053157829003601f168201915b5050505050815260200160018201805461056790610d0e565b80601f016020809104026020016040519081016040528092919081815260200182805461059390610d0e565b80156105e05780601f106105b5576101008083540402835291602001916105e0565b820191906000526020600020905b8154815290600101906020018083116105c357829003601f168201915b50505050508152602001600282015481526020016003820160009054906101000a900460ff16600381111561061857610617610964565b5b600381111561062a57610629610964565b5b8152602001600482015481526020016005820160009054906101000a900473ffffffffffffffffffffffffffffffffffffffff1673ffffffffffffffffffffffffffffffffffffffff1673ffffffffffffffffffffffffffffffffffffffff1681526020016005820160149054906101000a900460ff161515151581526020016005820160159054906101000a900460ff1615151515815260200160068201548152505090503373ffffffffffffffffffffffffffffffffffffffff168160a0015173ffffffffffffffffffffffffffffffffffffffff1614610742576040517f08c379a00000000000000000000000000000000000000000000000000000000081526004016107399061113f565b60405180910390fd5b600015158160e0015115151461078d576040517f08c379a0000000000000000000000000000000000000000000000000000000008152600401610784906111ab565b60405180910390fd5b60006001600085815260200190815260200160002060050160146101000a81548160ff02191690831515021790555060003373ffffffffffffffffffffffffffffffffffffffff1660016000868152602001908152602001600020600201546040516107f8906111fc565b60006040518083038185875af1925050503d8060008114610835576040519150601f19603f3d011682016040523d82523d6000602084013e61083a565b606091505b505090508061084857600080fd5b50505050565b6000604051905090565b600080fd5b600080fd5b6000819050919050565b61087581610862565b811461088057600080fd5b50565b6000813590506108928161086c565b92915050565b6000602082840312156108ae576108ad610858565b5b60006108bc84828501610883565b91505092915050565b600081519050919050565b600082825260208201905092915050565b60005b838110156108ff5780820151818401526020810190506108e4565b60008484015250505050565b6000601f19601f8301169050919050565b6000610927826108c5565b61093181856108d0565b93506109418185602086016108e1565b61094a8161090b565b840191505092915050565b61095e81610862565b82525050565b7f4e487b7100000000000000000000000000000000000000000000000000000000600052602160045260246000fd5b600481106109a4576109a3610964565b5b50565b60008190506109b582610993565b919050565b60006109c5826109a7565b9050919050565b6109d5816109ba565b82525050565b600073ffffffffffffffffffffffffffffffffffffffff82169050919050565b6000610a06826109db565b9050919050565b610a16816109fb565b82525050565b60008115159050919050565b610a3181610a1c565b82525050565b6000610120820190508181036000830152610a52818c61091c565b90508181036020830152610a66818b61091c565b9050610a75604083018a610955565b610a8260608301896109cc565b610a8f6080830188610955565b610a9c60a0830187610a0d565b610aa960c0830186610a28565b610ab660e0830185610a28565b610ac4610100830184610955565b9a9950505050505050505050565b600080fd5b600080fd5b7f4e487b7100000000000000000000000000000000000000000000000000000000600052604160045260246000fd5b610b148261090b565b810181811067ffffffffffffffff82111715610b3357610b32610adc565b5b80604052505050565b6000610b4661084e565b9050610b528282610b0b565b919050565b600067ffffffffffffffff821115610b7257610b71610adc565b5b610b7b8261090b565b9050602081019050919050565b82818337600083830152505050565b6000610baa610ba584610b57565b610b3c565b905082815260208101848484011115610bc657610bc5610ad7565b5b610bd1848285610b88565b509392505050565b600082601f830112610bee57610bed610ad2565b5b8135610bfe848260208601610b97565b91505092915050565b60048110610c1457600080fd5b50565b600081359050610c2681610c07565b92915050565b600080600080600060a08688031215610c4857610c47610858565b5b600086013567ffffffffffffffff811115610c6657610c6561085d565b5b610c7288828901610bd9565b955050602086013567ffffffffffffffff811115610c9357610c9261085d565b5b610c9f88828901610bd9565b9450506040610cb088828901610883565b9350506060610cc188828901610c17565b9250506080610cd288828901610883565b9150509295509295909350565b7f4e487b7100000000000000000000000000000000000000000000000000000000600052602260045260246000fd5b60006002820490506001821680610d2657607f821691505b602082108103610d3957610d38610cdf565b5b50919050565b7f4d757374206465706f7369742062756467657420746f20636f6e746163740000600082015250565b6000610d75601e836108d0565b9150610d8082610d3f565b602082019050919050565b60006020820190508181036000830152610da481610d68565b9050919050565b7f4e487b7100000000000000000000000000000000000000000000000000000000600052601160045260246000fd5b6000610de582610862565b91507fffffffffffffffffffffffffffffffffffffffffffffffffffffffffffffffff8203610e1757610e16610dab565b5b600182019050919050565b60008190508160005260206000209050919050565b60006020601f8301049050919050565b600082821b905092915050565b600060088302610e847fffffffffffffffffffffffffffffffffffffffffffffffffffffffffffffffff82610e47565b610e8e8683610e47565b95508019841693508086168417925050509392505050565b6000819050919050565b6000610ecb610ec6610ec184610862565b610ea6565b610862565b9050919050565b6000819050919050565b610ee583610eb0565b610ef9610ef182610ed2565b848454610e54565b825550505050565b600090565b610f0e610f01565b610f19818484610edc565b505050565b5b81811015610f3d57610f32600082610f06565b600181019050610f1f565b5050565b601f821115610f8257610f5381610e22565b610f5c84610e37565b81016020851015610f6b578190505b610f7f610f7785610e37565b830182610f1e565b50505b505050565b600082821c905092915050565b6000610fa560001984600802610f87565b1980831691505092915050565b6000610fbe8383610f94565b9150826002028217905092915050565b610fd7826108c5565b67ffffffffffffffff811115610ff057610fef610adc565b5b610ffa8254610d0e565b611005828285610f41565b600060209050601f8311600181146110385760008415611026578287015190505b6110308582610fb2565b865550611098565b601f19841661104686610e22565b60005b8281101561106e57848901518255600182019150602085019450602081019050611049565b8683101561108b5784890151611087601f891682610f94565b8355505b6001600288020188555050505b505050505050565b600081905092915050565b60006110b6826108c5565b6110c081856110a0565b93506110d08185602086016108e1565b80840191505092915050565b60006110e882846110ab565b915081905092915050565b7f4f6e6c79207461736b206f776e65722063616e2063616e63656c206f66666572600082015250565b60006111296020836108d0565b9150611134826110f3565b602082019050919050565b600060208201905081810360008301526111588161111c565b9050919050565b7f43616e6e6f742063616e63656c206f6666657220696e20657865637574696f6e600082015250565b60006111956020836108d0565b91506111a08261115f565b602082019050919050565b600060208201905081810360008301526111c481611188565b9050919050565b600081905092915050565b50565b60006111e66000836111cb565b91506111f1826111d6565b600082019050919050565b6000611207826111d9565b915081905091905056fea26469706673582212204216748f567f5e6bc27c5ddd0bd540e213ad464571e24a1b6a32b06f5cc8fdf864736f6c63430008120033",
  "linkReferences": {},
  "deployedLinkReferences": {}
}