{
  "_format": "hh-sol-artifact-1",
  "contractName": "WorkerBase",
  "sourceName": "contracts/WorkerBase.sol",
  "abi": [
    {
      "anonymous": false,
      "inputs": [
        {
          "indexed": true,
          "internalType": "string",
          "name": "title",
          "type": "string"
        }
      ],
      "name": "JobCompleted",
      "type": "event"
    },
    {
      "anonymous": false,
      "inputs": [
        {
          "indexed": true,
          "internalType": "string",
          "name": "title",
          "type": "string"
        },
        {
          "indexed": true,
          "internalType": "enum OfferBase.OfferCategory",
          "name": "category",
          "type": "uint8"
        }
      ],
      "name": "NewOffer",
      "type": "event"
    },
    {
      "anonymous": false,
      "inputs": [
        {
          "indexed": true,
          "internalType": "string",
          "name": "name",
          "type": "string"
        },
        {
          "indexed": true,
          "internalType": "string",
          "name": "email",
          "type": "string"
        }
      ],
      "name": "NewRegistration",
      "type": "event"
    },
    {
      "anonymous": false,
      "inputs": [
        {
          "indexed": true,
          "internalType": "address",
          "name": "executor",
          "type": "address"
        },
        {
          "indexed": true,
          "internalType": "string",
          "name": "title",
          "type": "string"
        }
      ],
      "name": "OfferAccepted",
      "type": "event"
    },
    {
      "anonymous": false,
      "inputs": [
        {
          "indexed": true,
          "internalType": "address",
          "name": "worker",
          "type": "address"
        },
        {
          "indexed": true,
          "internalType": "string",
          "name": "name",
          "type": "string"
        }
      ],
      "name": "WorkerApproved",
      "type": "event"
    },
    {
      "anonymous": false,
      "inputs": [
        {
          "indexed": true,
          "internalType": "address",
          "name": "worker",
          "type": "address"
        },
        {
          "indexed": true,
          "internalType": "string",
          "name": "reason",
          "type": "string"
        }
      ],
      "name": "WorkerRejected",
      "type": "event"
    },
    {
      "inputs": [
        {
          "internalType": "uint256",
          "name": "_offerId",
          "type": "uint256"
        }
      ],
      "name": "acceptOffer",
      "outputs": [],
      "stateMutability": "nonpayable",
      "type": "function"
    },
    {
      "inputs": [
        {
          "internalType": "uint256",
          "name": "_offerId",
          "type": "uint256"
        }
      ],
      "name": "cancelOffer",
      "outputs": [],
      "stateMutability": "nonpayable",
      "type": "function"
    },
    {
      "inputs": [
        {
          "internalType": "uint256",
          "name": "_jobId",
          "type": "uint256"
        }
      ],
      "name": "confirmJobCompleted",
      "outputs": [],
      "stateMutability": "nonpayable",
      "type": "function"
    },
    {
      "inputs": [
        {
          "internalType": "uint256",
          "name": "_jobId",
          "type": "uint256"
        }
      ],
      "name": "jobCompleted",
      "outputs": [],
      "stateMutability": "nonpayable",
      "type": "function"
    },
    {
      "inputs": [
        {
          "internalType": "uint256",
          "name": "_jobId",
          "type": "uint256"
        }
      ],
      "name": "jobFailed",
      "outputs": [],
      "stateMutability": "nonpayable",
      "type": "function"
    },
    {
      "inputs": [
        {
          "internalType": "uint256",
          "name": "",
          "type": "uint256"
        }
      ],
      "name": "jobs",
      "outputs": [
        {
          "internalType": "uint256",
          "name": "offerId",
          "type": "uint256"
        },
        {
          "internalType": "enum JobBase.JobStatus",
          "name": "status",
          "type": "uint8"
        },
        {
          "internalType": "address",
          "name": "workerAddress",
          "type": "address"
        }
      ],
      "stateMutability": "view",
      "type": "function"
    },
    {
      "inputs": [
        {
          "internalType": "uint256",
          "name": "",
          "type": "uint256"
        }
      ],
      "name": "offers",
      "outputs": [
        {
          "internalType": "string",
          "name": "title",
          "type": "string"
        },
        {
          "internalType": "string",
          "name": "description",
          "type": "string"
        },
        {
          "internalType": "uint256",
          "name": "budget",
          "type": "uint256"
        },
        {
          "internalType": "enum OfferBase.OfferCategory",
          "name": "category",
          "type": "uint8"
        },
        {
          "internalType": "uint256",
          "name": "expirationTime",
          "type": "uint256"
        },
        {
          "internalType": "address",
          "name": "client",
          "type": "address"
        },
        {
          "internalType": "bool",
          "name": "valid",
          "type": "bool"
        },
        {
          "internalType": "bool",
          "name": "inExecution",
          "type": "bool"
        },
        {
          "internalType": "uint256",
          "name": "jobId",
          "type": "uint256"
        }
      ],
      "stateMutability": "view",
      "type": "function"
    },
    {
      "inputs": [
        {
          "internalType": "string",
          "name": "_title",
          "type": "string"
        },
        {
          "internalType": "string",
          "name": "_description",
          "type": "string"
        },
        {
          "internalType": "uint256",
          "name": "_budget",
          "type": "uint256"
        },
        {
          "internalType": "enum OfferBase.OfferCategory",
          "name": "_category",
          "type": "uint8"
        },
        {
          "internalType": "uint256",
          "name": "_expirationTime",
          "type": "uint256"
        }
      ],
      "name": "publishOffer",
      "outputs": [],
      "stateMutability": "payable",
      "type": "function"
    },
    {
      "inputs": [
        {
          "internalType": "string",
          "name": "_name",
          "type": "string"
        },
        {
          "internalType": "string",
          "name": "_email",
          "type": "string"
        },
        {
          "internalType": "string",
          "name": "_image",
          "type": "string"
        }
      ],
      "name": "register",
      "outputs": [],
      "stateMutability": "nonpayable",
      "type": "function"
    },
    {
      "inputs": [
        {
          "internalType": "address",
          "name": "",
          "type": "address"
        }
      ],
      "name": "registrations",
      "outputs": [
        {
          "internalType": "string",
          "name": "name",
          "type": "string"
        },
        {
          "internalType": "string",
          "name": "email",
          "type": "string"
        },
        {
          "internalType": "string",
          "name": "image",
          "type": "string"
        },
        {
          "internalType": "enum WorkerBase.RegistrationStatus",
          "name": "status",
          "type": "uint8"
        }
      ],
      "stateMutability": "view",
      "type": "function"
    },
    {
      "inputs": [
        {
          "internalType": "address",
          "name": "",
          "type": "address"
        }
      ],
      "name": "workers",
      "outputs": [
        {
          "internalType": "string",
          "name": "name",
          "type": "string"
        },
        {
          "internalType": "string",
          "name": "email",
          "type": "string"
        },
        {
          "internalType": "string",
          "name": "image",
          "type": "string"
        },
        {
          "internalType": "uint256",
          "name": "tasksCompleted",
          "type": "uint256"
        },
        {
          "internalType": "uint256",
          "name": "tasksAccepted",
          "type": "uint256"
        },
        {
          "internalType": "enum WorkerBase.SkillLevel",
          "name": "skillLevel",
          "type": "uint8"
        },
        {
          "internalType": "bool",
          "name": "badActor",
          "type": "bool"
        }
      ],
      "stateMutability": "view",
      "type": "function"
    }
  ],
  "bytecode": "0x60806040526001600055600160025534801561001a57600080fd5b50612db08061002a6000396000f3fe60806040526004361061009c5760003560e01c80638a72ea6a116100645780638a72ea6a1461019e578063942e6bcf146101e3578063b5ced16214610223578063c815729d1461024c578063ca9f1b9614610275578063ef706adf146102915761009c565b8063180aedf3146100a15780634048a257146100e05780634cd08d03146101235780634ff34abe1461014c578063761173f714610175575b600080fd5b3480156100ad57600080fd5b506100c860048036038101906100c39190611bdd565b6102ba565b6040516100d793929190611cd1565b60405180910390f35b3480156100ec57600080fd5b5061010760048036038101906101029190611d34565b610311565b60405161011a9796959493929190611e54565b60405180910390f35b34801561012f57600080fd5b5061014a60048036038101906101459190611f3d565b610505565b005b34801561015857600080fd5b50610173600480360381019061016e9190611bdd565b610867565b005b34801561018157600080fd5b5061019c60048036038101906101979190611bdd565b6109fd565b005b3480156101aa57600080fd5b506101c560048036038101906101c09190611bdd565b610b29565b6040516101da99989796959493929190612039565b60405180910390f35b3480156101ef57600080fd5b5061020a60048036038101906102059190611d34565b610cce565b60405161021a949392919061211c565b60405180910390f35b34801561022f57600080fd5b5061024a60048036038101906102459190611bdd565b610ea3565b005b34801561025857600080fd5b50610273600480360381019061026e9190611bdd565b610ff8565b005b61028f600480360381019061028a91906122cb565b6115ad565b005b34801561029d57600080fd5b506102b860048036038101906102b39190611bdd565b6117e8565b005b60036020528060005260406000206000915090508060000154908060010160009054906101000a900460ff16908060010160019054906101000a900473ffffffffffffffffffffffffffffffffffffffff16905083565b6005602052806000526040600020600091509050806000018054610334906123ad565b80601f0160208091040260200160405190810160405280929190818152602001828054610360906123ad565b80156103ad5780601f10610382576101008083540402835291602001916103ad565b820191906000526020600020905b81548152906001019060200180831161039057829003601f168201915b5050505050908060010180546103c2906123ad565b80601f01602080910402602001604051908101604052809291908181526020018280546103ee906123ad565b801561043b5780601f106104105761010080835404028352916020019161043b565b820191906000526020600020905b81548152906001019060200180831161041e57829003601f168201915b505050505090806002018054610450906123ad565b80601f016020809104026020016040519081016040528092919081815260200182805461047c906123ad565b80156104c95780601f1061049e576101008083540402835291602001916104c9565b820191906000526020600020905b8154815290600101906020018083116104ac57829003601f168201915b5050505050908060030154908060040154908060060160009054906101000a900460ff16908060060160019054906101000a900460ff16905087565b858585856000600381111561051d5761051c611c19565b5b600460003373ffffffffffffffffffffffffffffffffffffffff1673ffffffffffffffffffffffffffffffffffffffff16815260200190815260200160002060030160009054906101000a900460ff16600381111561057f5761057e611c19565b5b146105bf576040517f08c379a00000000000000000000000000000000000000000000000000000000081526004016105b69061242a565b60405180910390fd5b60008484905003610605576040517f08c379a00000000000000000000000000000000000000000000000000000000081526004016105fc90612496565b60405180910390fd5b6000828290500361064b576040517f08c379a000000000000000000000000000000000000000000000000000000000815260040161064290612502565b60405180910390fd5b60405180608001604052808b8b8080601f016020809104026020016040519081016040528093929190818152602001838380828437600081840152601f19601f82011690508083019250505050505050815260200189898080601f016020809104026020016040519081016040528093929190818152602001838380828437600081840152601f19601f82011690508083019250505050505050815260200187878080601f016020809104026020016040519081016040528093929190818152602001838380828437600081840152601f19601f8201169050808301925050505050505081526020016001600381111561074857610747611c19565b5b815250600460003373ffffffffffffffffffffffffffffffffffffffff1673ffffffffffffffffffffffffffffffffffffffff168152602001908152602001600020600082015181600001908161079f91906126ce565b5060208201518160010190816107b591906126ce565b5060408201518160020190816107cb91906126ce565b5060608201518160030160006101000a81548160ff021916908360038111156107f7576107f6611c19565b5b0217905550905050878760405161080f9291906127d0565b60405180910390208a8a6040516108279291906127d0565b60405180910390207fc69084e279fb33469ee9b511b36eb4aa97d6f2f4e68cf88a4555953dd8d0a15f60405160405180910390a350505050505050505050565b600160006003600084815260200190815260200160002060000154815260200190815260200160002060050160009054906101000a900473ffffffffffffffffffffffffffffffffffffffff1673ffffffffffffffffffffffffffffffffffffffff163373ffffffffffffffffffffffffffffffffffffffff1614610921576040517f08c379a000000000000000000000000000000000000000000000000000000000815260040161091890612835565b60405180910390fd5b60006003600083815260200190815260200160002060010160019054906101000a900473ffffffffffffffffffffffffffffffffffffffff1673ffffffffffffffffffffffffffffffffffffffff166001600060036000868152602001908152602001600020600001548152602001908152602001600020600201546040516109a990612886565b60006040518083038185875af1925050503d80600081146109e6576040519150601f19603f3d011682016040523d82523d6000602084013e6109eb565b606091505b50509050806109f957600080fd5b5050565b803373ffffffffffffffffffffffffffffffffffffffff166003600083815260200190815260200160002060010160019054906101000a900473ffffffffffffffffffffffffffffffffffffffff1673ffffffffffffffffffffffffffffffffffffffff1614610aa2576040517f08c379a0000000000000000000000000000000000000000000000000000000008152600401610a99906128e7565b60405180910390fd5b600380600084815260200190815260200160002060010160006101000a81548160ff02191690836003811115610adb57610ada611c19565b5b02179055506000600160006003600086815260200190815260200160002060000154815260200190815260200160002060050160156101000a81548160ff0219169083151502179055505050565b6001602052806000526040600020600091509050806000018054610b4c906123ad565b80601f0160208091040260200160405190810160405280929190818152602001828054610b78906123ad565b8015610bc55780601f10610b9a57610100808354040283529160200191610bc5565b820191906000526020600020905b815481529060010190602001808311610ba857829003601f168201915b505050505090806001018054610bda906123ad565b80601f0160208091040260200160405190810160405280929190818152602001828054610c06906123ad565b8015610c535780601f10610c2857610100808354040283529160200191610c53565b820191906000526020600020905b815481529060010190602001808311610c3657829003601f168201915b5050505050908060020154908060030160009054906101000a900460ff16908060040154908060050160009054906101000a900473ffffffffffffffffffffffffffffffffffffffff16908060050160149054906101000a900460ff16908060050160159054906101000a900460ff16908060060154905089565b6004602052806000526040600020600091509050806000018054610cf1906123ad565b80601f0160208091040260200160405190810160405280929190818152602001828054610d1d906123ad565b8015610d6a5780601f10610d3f57610100808354040283529160200191610d6a565b820191906000526020600020905b815481529060010190602001808311610d4d57829003601f168201915b505050505090806001018054610d7f906123ad565b80601f0160208091040260200160405190810160405280929190818152602001828054610dab906123ad565b8015610df85780601f10610dcd57610100808354040283529160200191610df8565b820191906000526020600020905b815481529060010190602001808311610ddb57829003601f168201915b505050505090806002018054610e0d906123ad565b80601f0160208091040260200160405190810160405280929190818152602001828054610e39906123ad565b8015610e865780601f10610e5b57610100808354040283529160200191610e86565b820191906000526020600020905b815481529060010190602001808311610e6957829003601f168201915b5050505050908060030160009054906101000a900460ff16905084565b803373ffffffffffffffffffffffffffffffffffffffff166003600083815260200190815260200160002060010160019054906101000a900473ffffffffffffffffffffffffffffffffffffffff1673ffffffffffffffffffffffffffffffffffffffff1614610f48576040517f08c379a0000000000000000000000000000000000000000000000000000000008152600401610f3f906128e7565b60405180910390fd5b60016003600084815260200190815260200160002060010160006101000a81548160ff02191690836003811115610f8257610f81611c19565b5b02179055506001600060036000858152602001908152602001600020600001548152602001908152602001600020600001604051610fc0919061298a565b60405180910390207ff4997d0622dd94317c7e49d567ef6a4deb5d20c6dd4e2ecf6a45f9f55014794060405160405180910390a25050565b60001515600560003373ffffffffffffffffffffffffffffffffffffffff1673ffffffffffffffffffffffffffffffffffffffff16815260200190815260200160002060060160019054906101000a900460ff1615151461108e576040517f08c379a0000000000000000000000000000000000000000000000000000000008152600401611085906129ed565b60405180910390fd5b80600060016000838152602001908152602001600020604051806101200160405290816000820180546110c0906123ad565b80601f01602080910402602001604051908101604052809291908181526020018280546110ec906123ad565b80156111395780601f1061110e57610100808354040283529160200191611139565b820191906000526020600020905b81548152906001019060200180831161111c57829003601f168201915b50505050508152602001600182018054611152906123ad565b80601f016020809104026020016040519081016040528092919081815260200182805461117e906123ad565b80156111cb5780601f106111a0576101008083540402835291602001916111cb565b820191906000526020600020905b8154815290600101906020018083116111ae57829003601f168201915b50505050508152602001600282015481526020016003820160009054906101000a900460ff16600381111561120357611202611c19565b5b600381111561121557611214611c19565b5b8152602001600482015481526020016005820160009054906101000a900473ffffffffffffffffffffffffffffffffffffffff1673ffffffffffffffffffffffffffffffffffffffff1673ffffffffffffffffffffffffffffffffffffffff1681526020016005820160149054906101000a900460ff161515151581526020016005820160159054906101000a900460ff161515151581526020016006820154815250509050600115158160c00151151514611306576040517f08c379a00000000000000000000000000000000000000000000000000000000081526004016112fd90612a59565b60405180910390fd5b3373ffffffffffffffffffffffffffffffffffffffff168160a0015173ffffffffffffffffffffffffffffffffffffffff1603611378576040517f08c379a000000000000000000000000000000000000000000000000000000000815260040161136f90612ac5565b60405180910390fd5b600015158160e001511515146113c3576040517f08c379a00000000000000000000000000000000000000000000000000000000081526004016113ba90612b57565b60405180910390fd5b600180600085815260200190815260200160002060050160156101000a81548160ff02191690831515021790555060405180606001604052808481526020016000600381111561141657611415611c19565b5b81526020013373ffffffffffffffffffffffffffffffffffffffff16815250600360006002600081548092919061144c90612ba6565b9190505581526020019081526020016000206000820151816000015560208201518160010160006101000a81548160ff0219169083600381111561149357611492611c19565b5b021790555060408201518160010160016101000a81548173ffffffffffffffffffffffffffffffffffffffff021916908373ffffffffffffffffffffffffffffffffffffffff160217905550905050600560003373ffffffffffffffffffffffffffffffffffffffff1673ffffffffffffffffffffffffffffffffffffffff168152602001908152602001600020600401600081548092919061153590612ba6565b91905055506001600084815260200190815260200160002060000160405161155d919061298a565b60405180910390203373ffffffffffffffffffffffffffffffffffffffff167f916b932a3c288483f87b030d80d1d27e65bf88e30c04cc858f20c3ced833665d60405160405180910390a3505050565b823410156115f0576040517f08c379a00000000000000000000000000000000000000000000000000000000081526004016115e790612c3a565b60405180910390fd5b60405180610120016040528086815260200185815260200184815260200183600381111561162157611620611c19565b5b81526020018281526020013373ffffffffffffffffffffffffffffffffffffffff16815260200160011515815260200160001515815260200160008152506001600080600081548092919061167590612ba6565b919050558152602001908152602001600020600082015181600001908161169c91906126ce565b5060208201518160010190816116b291906126ce565b506040820151816002015560608201518160030160006101000a81548160ff021916908360038111156116e8576116e7611c19565b5b02179055506080820151816004015560a08201518160050160006101000a81548173ffffffffffffffffffffffffffffffffffffffff021916908373ffffffffffffffffffffffffffffffffffffffff16021790555060c08201518160050160146101000a81548160ff02191690831515021790555060e08201518160050160156101000a81548160ff021916908315150217905550610100820151816006015590505081600381111561179f5761179e611c19565b5b856040516117ad9190612c8b565b60405180910390207f983908ad4acf6f64fa39e50c8c92ff66b728d6754ad26f4894116c6ff163ab9b60405160405180910390a35050505050565b806000600160008381526020019081526020016000206040518061012001604052908160008201805461181a906123ad565b80601f0160208091040260200160405190810160405280929190818152602001828054611846906123ad565b80156118935780601f1061186857610100808354040283529160200191611893565b820191906000526020600020905b81548152906001019060200180831161187657829003601f168201915b505050505081526020016001820180546118ac906123ad565b80601f01602080910402602001604051908101604052809291908181526020018280546118d8906123ad565b80156119255780601f106118fa57610100808354040283529160200191611925565b820191906000526020600020905b81548152906001019060200180831161190857829003601f168201915b50505050508152602001600282015481526020016003820160009054906101000a900460ff16600381111561195d5761195c611c19565b5b600381111561196f5761196e611c19565b5b8152602001600482015481526020016005820160009054906101000a900473ffffffffffffffffffffffffffffffffffffffff1673ffffffffffffffffffffffffffffffffffffffff1673ffffffffffffffffffffffffffffffffffffffff1681526020016005820160149054906101000a900460ff161515151581526020016005820160159054906101000a900460ff1615151515815260200160068201548152505090503373ffffffffffffffffffffffffffffffffffffffff168160a0015173ffffffffffffffffffffffffffffffffffffffff1614611a87576040517f08c379a0000000000000000000000000000000000000000000000000000000008152600401611a7e90612cee565b60405180910390fd5b600015158160e00151151514611ad2576040517f08c379a0000000000000000000000000000000000000000000000000000000008152600401611ac990612d5a565b60405180910390fd5b60006001600085815260200190815260200160002060050160146101000a81548160ff02191690831515021790555060003373ffffffffffffffffffffffffffffffffffffffff166001600086815260200190815260200160002060020154604051611b3d90612886565b60006040518083038185875af1925050503d8060008114611b7a576040519150601f19603f3d011682016040523d82523d6000602084013e611b7f565b606091505b5050905080611b8d57600080fd5b50505050565b6000604051905090565b600080fd5b600080fd5b6000819050919050565b611bba81611ba7565b8114611bc557600080fd5b50565b600081359050611bd781611bb1565b92915050565b600060208284031215611bf357611bf2611b9d565b5b6000611c0184828501611bc8565b91505092915050565b611c1381611ba7565b82525050565b7f4e487b7100000000000000000000000000000000000000000000000000000000600052602160045260246000fd5b60048110611c5957611c58611c19565b5b50565b6000819050611c6a82611c48565b919050565b6000611c7a82611c5c565b9050919050565b611c8a81611c6f565b82525050565b600073ffffffffffffffffffffffffffffffffffffffff82169050919050565b6000611cbb82611c90565b9050919050565b611ccb81611cb0565b82525050565b6000606082019050611ce66000830186611c0a565b611cf36020830185611c81565b611d006040830184611cc2565b949350505050565b611d1181611cb0565b8114611d1c57600080fd5b50565b600081359050611d2e81611d08565b92915050565b600060208284031215611d4a57611d49611b9d565b5b6000611d5884828501611d1f565b91505092915050565b600081519050919050565b600082825260208201905092915050565b60005b83811015611d9b578082015181840152602081019050611d80565b60008484015250505050565b6000601f19601f8301169050919050565b6000611dc382611d61565b611dcd8185611d6c565b9350611ddd818560208601611d7d565b611de681611da7565b840191505092915050565b60038110611e0257611e01611c19565b5b50565b6000819050611e1382611df1565b919050565b6000611e2382611e05565b9050919050565b611e3381611e18565b82525050565b60008115159050919050565b611e4e81611e39565b82525050565b600060e0820190508181036000830152611e6e818a611db8565b90508181036020830152611e828189611db8565b90508181036040830152611e968188611db8565b9050611ea56060830187611c0a565b611eb26080830186611c0a565b611ebf60a0830185611e2a565b611ecc60c0830184611e45565b98975050505050505050565b600080fd5b600080fd5b600080fd5b60008083601f840112611efd57611efc611ed8565b5b8235905067ffffffffffffffff811115611f1a57611f19611edd565b5b602083019150836001820283011115611f3657611f35611ee2565b5b9250929050565b60008060008060008060608789031215611f5a57611f59611b9d565b5b600087013567ffffffffffffffff811115611f7857611f77611ba2565b5b611f8489828a01611ee7565b9650965050602087013567ffffffffffffffff811115611fa757611fa6611ba2565b5b611fb389828a01611ee7565b9450945050604087013567ffffffffffffffff811115611fd657611fd5611ba2565b5b611fe289828a01611ee7565b92509250509295509295509295565b6004811061200257612001611c19565b5b50565b600081905061201382611ff1565b919050565b600061202382612005565b9050919050565b61203381612018565b82525050565b6000610120820190508181036000830152612054818c611db8565b90508181036020830152612068818b611db8565b9050612077604083018a611c0a565b612084606083018961202a565b6120916080830188611c0a565b61209e60a0830187611cc2565b6120ab60c0830186611e45565b6120b860e0830185611e45565b6120c6610100830184611c0a565b9a9950505050505050505050565b600481106120e5576120e4611c19565b5b50565b60008190506120f6826120d4565b919050565b6000612106826120e8565b9050919050565b612116816120fb565b82525050565b600060808201905081810360008301526121368187611db8565b9050818103602083015261214a8186611db8565b9050818103604083015261215e8185611db8565b905061216d606083018461210d565b95945050505050565b600080fd5b7f4e487b7100000000000000000000000000000000000000000000000000000000600052604160045260246000fd5b6121b382611da7565b810181811067ffffffffffffffff821117156121d2576121d161217b565b5b80604052505050565b60006121e5611b93565b90506121f182826121aa565b919050565b600067ffffffffffffffff8211156122115761221061217b565b5b61221a82611da7565b9050602081019050919050565b82818337600083830152505050565b6000612249612244846121f6565b6121db565b90508281526020810184848401111561226557612264612176565b5b612270848285612227565b509392505050565b600082601f83011261228d5761228c611ed8565b5b813561229d848260208601612236565b91505092915050565b600481106122b357600080fd5b50565b6000813590506122c5816122a6565b92915050565b600080600080600060a086880312156122e7576122e6611b9d565b5b600086013567ffffffffffffffff81111561230557612304611ba2565b5b61231188828901612278565b955050602086013567ffffffffffffffff81111561233257612331611ba2565b5b61233e88828901612278565b945050604061234f88828901611bc8565b9350506060612360888289016122b6565b925050608061237188828901611bc8565b9150509295509295909350565b7f4e487b7100000000000000000000000000000000000000000000000000000000600052602260045260246000fd5b600060028204905060018216806123c557607f821691505b6020821081036123d8576123d761237e565b5b50919050565b7f526567697374726174696f6e20616c7265616479207375626d69747465640000600082015250565b6000612414601e83611d6c565b915061241f826123de565b602082019050919050565b6000602082019050818103600083015261244381612407565b9050919050565b7f4e616d65206d757374206e6f7420626520656d70747900000000000000000000600082015250565b6000612480601683611d6c565b915061248b8261244a565b602082019050919050565b600060208201905081810360008301526124af81612473565b9050919050565b7f456d61696c206d757374206e6f7420626520656d707479000000000000000000600082015250565b60006124ec601783611d6c565b91506124f7826124b6565b602082019050919050565b6000602082019050818103600083015261251b816124df565b9050919050565b60008190508160005260206000209050919050565b60006020601f8301049050919050565b600082821b905092915050565b6000600883026125847fffffffffffffffffffffffffffffffffffffffffffffffffffffffffffffffff82612547565b61258e8683612547565b95508019841693508086168417925050509392505050565b6000819050919050565b60006125cb6125c66125c184611ba7565b6125a6565b611ba7565b9050919050565b6000819050919050565b6125e5836125b0565b6125f96125f1826125d2565b848454612554565b825550505050565b600090565b61260e612601565b6126198184846125dc565b505050565b5b8181101561263d57612632600082612606565b60018101905061261f565b5050565b601f8211156126825761265381612522565b61265c84612537565b8101602085101561266b578190505b61267f61267785612537565b83018261261e565b50505b505050565b600082821c905092915050565b60006126a560001984600802612687565b1980831691505092915050565b60006126be8383612694565b9150826002028217905092915050565b6126d782611d61565b67ffffffffffffffff8111156126f0576126ef61217b565b5b6126fa82546123ad565b612705828285612641565b600060209050601f8311600181146127385760008415612726578287015190505b61273085826126b2565b865550612798565b601f19841661274686612522565b60005b8281101561276e57848901518255600182019150602085019450602081019050612749565b8683101561278b5784890151612787601f891682612694565b8355505b6001600288020188555050505b505050505050565b600081905092915050565b60006127b783856127a0565b93506127c4838584612227565b82840190509392505050565b60006127dd8284866127ab565b91508190509392505050565b7f4f6e6c7920636c69656e742063616e20636f6e6669726d206a6f6220646f6e65600082015250565b600061281f602083611d6c565b915061282a826127e9565b602082019050919050565b6000602082019050818103600083015261284e81612812565b9050919050565b600081905092915050565b50565b6000612870600083612855565b915061287b82612860565b600082019050919050565b600061289182612863565b9150819050919050565b7f53656e646572206973206e6f74206a6f6220776f726b65720000000000000000600082015250565b60006128d1601883611d6c565b91506128dc8261289b565b602082019050919050565b60006020820190508181036000830152612900816128c4565b9050919050565b60008154612914816123ad565b61291e81866127a0565b94506001821660008114612939576001811461294e57612981565b60ff1983168652811515820286019350612981565b61295785612522565b60005b838110156129795781548189015260018201915060208101905061295a565b838801955050505b50505092915050565b60006129968284612907565b915081905092915050565b7f776f726b6572206d757374206861766520696e74656772697479000000000000600082015250565b60006129d7601a83611d6c565b91506129e2826129a1565b602082019050919050565b60006020820190508181036000830152612a06816129ca565b9050919050565b7f4f66666572206973206e6f206c6f6e6765722076616c69640000000000000000600082015250565b6000612a43601883611d6c565b9150612a4e82612a0d565b602082019050919050565b60006020820190508181036000830152612a7281612a36565b9050919050565b7f43616e6e6f742061636365707420796f7572206f776e206f6666657273000000600082015250565b6000612aaf601d83611d6c565b9150612aba82612a79565b602082019050919050565b60006020820190508181036000830152612ade81612aa2565b9050919050565b7f43616e6e6f7420616363657074206f666665727320696e20657865637574696f60008201527f6e00000000000000000000000000000000000000000000000000000000000000602082015250565b6000612b41602183611d6c565b9150612b4c82612ae5565b604082019050919050565b60006020820190508181036000830152612b7081612b34565b9050919050565b7f4e487b7100000000000000000000000000000000000000000000000000000000600052601160045260246000fd5b6000612bb182611ba7565b91507fffffffffffffffffffffffffffffffffffffffffffffffffffffffffffffffff8203612be357612be2612b77565b5b600182019050919050565b7f4d757374206465706f7369742062756467657420746f20636f6e746163740000600082015250565b6000612c24601e83611d6c565b9150612c2f82612bee565b602082019050919050565b60006020820190508181036000830152612c5381612c17565b9050919050565b6000612c6582611d61565b612c6f81856127a0565b9350612c7f818560208601611d7d565b80840191505092915050565b6000612c978284612c5a565b915081905092915050565b7f4f6e6c79207461736b206f776e65722063616e2063616e63656c206f66666572600082015250565b6000612cd8602083611d6c565b9150612ce382612ca2565b602082019050919050565b60006020820190508181036000830152612d0781612ccb565b9050919050565b7f43616e6e6f742063616e63656c206f6666657220696e20657865637574696f6e600082015250565b6000612d44602083611d6c565b9150612d4f82612d0e565b602082019050919050565b60006020820190508181036000830152612d7381612d37565b905091905056fea264697066735822122064873d24a2c218910f372fdf7d01c812d1e4d9c7252c3b06a621dc381e4988e864736f6c63430008120033",
  "linkReferences": {},
  "deployedLinkReferences": {}
}